:100000000C942A000C9447000C9447000C94470071
:100010000C9447000C9447000C9447000C94470044
:100020000C9447000C9447000C9447000C94470034
:100030000C9447000C9496110C94C9110C94FC116B
:100040000C9447000C9447000C9447000C94470014
:100050000C94470011241FBECFE5D8E0DEBFCDBF12
:1000600010E0A8E6B0E001C01D92AE36B107E1F79E
:1000700010E0A0E6B0E0E2E5F5E202C005900D92E6
:10008000A836B107D9F70E94A3050C94A7120C94C7
:100090000000EF92FF920F931F937B018C0120E0F1
:1000A00030E040E05FE40E94490388238CF0C801FF
:1000B000B70120E030E040E05FE40E94C1010E940F
:1000C000A9039B01AC01205030404040504806C07D
:1000D000C801B7010E94A9039B01AC01B901CA0183
:1000E0001F910F91FF90EF900895A0E0B0E0EBE733
:1000F000F0E00C947012DC012B01FA019C9192301B
:1001000008F439C1EB018881823008F433C194309E
:1001100069F4843009F02FC111969C91119789815F
:10012000981709F428C1A0E6B0E025C1843009F48D
:1001300021C18230A9F4923009F01DC19A01AD01AC
:1001400088E0EA010990AE01E90109929E0181501F
:10015000C1F7E201898111969C918923818308C1AD
:10016000923009F407C112962D903C901397EB0141
:100170008A819B811496AD90BD90CD90DC901797AD
:10018000EC80FD800E811F819101281B390BB90184
:1001900037FF04C066277727621B730B6032710537
:1001A0000CF061C0121613066CF537014801062EDB
:1001B00004C096948794779467940A94D2F721E0C8
:1001C00030E040E050E004C0220F331F441F551FB1
:1001D0006A95D2F721503040404050402E213F21B7
:1001E00040235123211531054105510521F021E01E
:1001F00030E040E050E079018A01E628F72808293C
:1002000019293CC0232BD1F1260E371E350146019A
:10021000062E04C096948794779467940A94D2F734
:1002200021E030E040E050E004C0220F331F441FC3
:10023000551F6A95D2F721503040404050402A2146
:100240003B214C215D21211531054105510521F04E
:1002500021E030E040E050E059016A01A628B728CB
:10026000C828D9280BC0821593052CF01C01AA249C
:10027000BB24650103C0EE24FF24870111969C91E5
:10028000D20111968C91981709F445C0992339F041
:10029000A80197012A193B094C095D0906C0A6016E
:1002A00095012E193F09400B510B57FD08C01182D3
:1002B0003382228224833583468357831DC081E0A5
:1002C00081833382228288279927DC01821B930B4A
:1002D000A40BB50B84839583A683B7830DC0220F2F
:1002E000331F441F551F24833583468357838281E0
:1002F000938101979383828324813581468157813D
:10030000DA01C9010197A109B1098F5F9F4FAF4F72
:10031000BF4328F30BC0918333822282EA0CFB1C7B
:100320000C1D1D1DE482F5820683178383E0808304
:10033000248135814681578157FF1AC0C901AA27F8
:1003400097FDA095BA2F81709070A070B0705695EF
:10035000479537952795822B932BA42BB52B848318
:100360009583A683B7838281938101969383828349
:10037000DF0101C0D201CD01CDB7DEB7E2E10C94BF
:100380008C12A0E2B0E0E7ECF1E00C947C126983FF
:100390007A838B839C832D833E834F835887E9E048
:1003A000EE2EF12CEC0EFD1ECE010196B7010E943F
:1003B000D2048E010F5E1F4FCE010596B8010E9438
:1003C000D2048A8991E089278A8BC701B801AE01DE
:1003D000475E5F4F0E9475000E94FD03A096E6E015
:1003E0000C949812A0E2B0E0E8EFF1E00C947C12DB
:1003F00069837A838B839C832D833E834F835887C5
:10040000F9E0EF2EF12CEC0EFD1ECE010196B701A6
:100410000E94D2048E010F5E1F4FCE010596B801D7
:100420000E94D204C701B801AE01475E5F4F0E942F
:1004300075000E94FD03A096E6E00C949812A0E2DD
:10044000B0E0E5E2F2E00C94701269837A838B836A
:100450009C832D833E834F835887CE010196BE0136
:10046000675F7F4F0E94D204CE010596BE016F5E8A
:100470007F4F0E94D2049985923088F0898982301A
:10048000C8F0943019F4823051F404C0843029F457
:10049000923081F480E690E0C6C0923049F420E0CA
:1004A0009A858A89981321E02A87CE010996BBC0D4
:1004B000823049F420E09A858A89981321E02A8BBA
:1004C000CE014196B0C02D843E844F8458886D88FB
:1004D0007E888F88988CEE24FF248701AA24BB2471
:1004E000650140E050E060E070E0E0E0F0E0C10174
:1004F00081709070892BE9F0E60CF71C081D191D1E
:100500009A01AB012A0D3B1D4C1D5D1D80E090E062
:10051000A0E0B0E0E614F7040805190520F481E036
:1005200090E0A0E0B0E0BA01A901480F591F6A1F8E
:100530007B1FAA0CBB1CCC1CDD1C97FE08C081E0F5
:1005400090E0A0E0B0E0A82AB92ACA2ADB2A3196B6
:10055000E032F10549F0660C771C881C991C569412
:10056000479437942794C3CFFA85EA892B893C892D
:100570008B859C85280F391F2E5F3F4F17C0CA01FE
:1005800081709070892B61F016950795F794E79428
:1005900080E090E0A0E0B0E8E82AF92A0A2B1B2BC3
:1005A00076956795579547952F5F3F4F77FDE7CF36
:1005B0000CC0440F551F661F771F17FD4160EE0CDE
:1005C000FF1C001F111F21503040403090E05907A0
:1005D00090E0690790E4790760F32B8F3C8FDB0193
:1005E000CA018F779070A070B07080349105A1051A
:1005F000B10561F447FD0AC0E114F10401051105DC
:1006000029F0405C5F4F6F4F7F4F40781A8EFE1786
:1006100011F081E08A8F4D8F5E8F6F8F78A383E01A
:10062000898FCE0149960E94FD03A096E2E10C94C9
:100630008C12A8E1B0E0EFE1F3E00C947C12698346
:100640007A838B839C832D833E834F83588789E0F5
:10065000E82EF12CEC0EFD1ECE010196B7010E9492
:10066000D2048E010F5E1F4FCE010596B8010E9485
:10067000D2048985823040F08989823028F0C70110
:10068000B8010E944A0501C08FEF6896E6E00C941D
:100690009812A8E1B0E0EFE4F3E00C947C126983D7
:1006A0007A838B839C832D833E834F83588789E095
:1006B000E82EF12CEC0EFD1ECE010196B7010E9432
:1006C000D2048E010F5E1F4FCE010596B8010E9425
:1006D000D2048985823040F08989823028F0C701B0
:1006E000B8010E944A0501C08FEF6896E6E00C94BD
:1006F0009812A8E1B0E0EFE7F3E00C947C12698374
:100700007A838B839C832D833E834F83588789E034
:10071000E82EF12CEC0EFD1ECE010196B7010E94D1
:10072000D2048E010F5E1F4FCE010596B8010E94C4
:10073000D2048985823040F08989823028F0C7014F
:10074000B8010E944A0501C081E06896E6E00C9479
:100750009812ACE0B0E0EFEAF3E00C948012698309
:100760007A838B839C83CE010196BE016B5F7F4FA2
:100770000E94D2048D81823061F1823050F1843048
:1007800021F48E81882351F12EC02F81388537FDC9
:1007900020C06E812F3131051CF06623F9F023C093
:1007A0008EE190E0821B930B29853A854B855C8511
:1007B00004C056954795379527958A95D2F76623B5
:1007C000B1F050954095309521953F4F4F4F5F4F79
:1007D0000EC020E030E040E050E009C02FEF3FEFD6
:1007E0004FEF5FE704C020E030E040E050E8B9019F
:1007F000CA012C96E2E00C949C12DF92EF92FF92D9
:100800000F931F93FC01E480F58006811781D1804E
:100810008081823048F480E090E0A0E1B0E0E82AF6
:10082000F92A0A2B1B2BA5C0843009F49FC0823003
:1008300021F4EE24FF24870105C0E114F104010531
:10084000110519F4E0E0F0E096C0628173819FEF3A
:10085000623879070CF05BC022E83FEF261B370BAC
:100860002A3131052CF020E030E040E050E02AC091
:10087000B801A701022E04C0769567955795479554
:100880000A94D2F781E090E0A0E0B0E004C0880FC5
:10089000991FAA1FBB1F2A95D2F70197A109B10979
:1008A0008E219F21A023B1230097A105B10521F03E
:1008B00081E090E0A0E0B0E09A01AB01282B392B59
:1008C0004A2B5B2BDA01C9018F779070A070B07052
:1008D00080349105A105B10539F427FF09C0205CDA
:1008E0003F4F4F4F5F4F04C0215C3F4F4F4F5F4F13
:1008F000E0E0F0E02030A0E03A07A0E04A07A0E402
:100900005A0710F0E1E0F0E079018A0127C0603871
:10091000710564F5FB01E158FF4FD801C7018F77DE
:100920009070A070B07080349105A105B10539F4C4
:10093000E7FE0DC080E490E0A0E0B0E004C08FE3EB
:1009400090E0A0E0B0E0E80EF91E0A1F1B1F17FFA1
:1009500005C016950795F794E794319687E01695AC
:100960000795F794E7948A95D1F705C0EE24FF2404
:100970008701EFEFF0E06E2F679566276795902F60
:100980009F77D794DD24D7948E2F8695492F462BB9
:10099000582F5D29B701CA011F910F91FF90EF9069
:1009A000DF900895FC01DB01408151812281622F9B
:1009B0006F7770E0221F2227221F9381892F880FD3
:1009C000822B282F30E0991F9927991F11969C930D
:1009D000119721153105A9F54115510561057105DD
:1009E00011F482E037C082E89FEF13969C938E93B8
:1009F00012979A01AB0167E0220F331F441F551F66
:100A00006A95D1F783E08C930DC0220F331F441FEA
:100A1000551F12968D919C911397019713969C9355
:100A20008E931297203080E0380780E0480780E4FA
:100A3000580758F314962D933D934D935C93179755
:100A400008952F3F310579F4411551056105710570
:100A500019F484E08C93089564FF03C081E08C93C3
:100A600012C01C9210C02F57304013963C932E9307
:100A7000129783E08C9387E0440F551F661F771F02
:100A80008A95D1F7706414964D935D936D937C9322
:100A9000179708951F93DC01FB019C91923008F495
:100AA00047C08081823008F443C0943051F41196DD
:100AB0001C91843099F58181682F70E0611B710968
:100AC0003FC0843021F0923031F48230B9F181811D
:100AD000882389F12DC011961C9111978230F1F075
:100AE00081811817D9F412962D913C911397828128
:100AF00093818217930794F028173907BCF0149656
:100B00008D919D910D90BC91A02D248135814681C0
:100B10005781281739074A075B0718F4112341F05A
:100B20000AC082179307A407B50740F4112319F0F0
:100B300061E070E005C06FEF7FEF02C060E070E041
:100B4000CB011F910895DF93CF93CDB7DEB72F97D9
:100B50000FB6F894DEBF0FBECDBF0E94030A0E94FD
:100B6000D40F87E30E940C108F878F85853321F483
:100B700080E060E00E94BE0F80E090E0AAEFB4E465
:100B80008B879C87AD87BE876B857C858D859E8591
:100B900020E030E04AEF54E40E941F02DC01CB0168
:100BA0008F839887A987BA876F81788589859A8589
:100BB00020E030E040E85FE30E94790388232CF4D2
:100BC00081E090E09E838D833FC06F817885898529
:100BD0009A8520E03FEF4FE757E40E94190318166B
:100BE0004CF56B857C858D859E8520E030E040E26C
:100BF00051E40E941F02DC01CB01BC01CD010E9427
:100C00004900DC01CB019E838D830FC088EC90E00E
:100C10009C838B838B819C810197F1F79C838B83D1
:100C20008D819E8101979E838D838D819E8100970A
:100C300069F797CF6F81788589859A850E944900E9
:100C4000DC01CB019E838D838D819E819A83898374
:100C500089819A810197F1F79A83898382CFDF9303
:100C6000CF93CDB7DEB72D970FB6F894DEBF0FBE8A
:100C7000CDBF89836A834B838981843008F009C1A1
:100C80008A81883008F005C18B81823008F001C16B
:100C90008981282F30E03D872C878C859D85813088
:100CA000910509F44FC02C853D85223031052CF487
:100CB0008C859D85009771F0ECC02C853D85223098
:100CC000310509F477C08C859D858330910509F441
:100CD000A9C0DFC08B81282F30E03B872A878A8517
:100CE0009B85009731F02A853B8521303105B1F095
:100CF000D0C0AAE3B0E0EAE3F0E08081482F8A8127
:100D0000282F30E081E090E0022E02C0880F991F6A
:100D10000A94E2F7809584238C93BBC0AAE3B0E0E9
:100D2000EAE3F0E08081482F8A81282F30E081E0DB
:100D300090E0022E02C0880F991F0A94E2F7842BDC
:100D40008C93A7C08B81282F30E03987288788852E
:100D50009985009731F02885398521303105B1F02A
:100D600098C0A7E3B0E0E7E3F0E08081482F8A81F4
:100D7000282F30E081E090E0022E02C0880F991FFA
:100D80000A94E2F7809584238C9383C0A7E3B0E0B4
:100D9000E7E3F0E08081482F8A81282F30E081E06E
:100DA00090E0022E02C0880F991F0A94E2F7842B6C
:100DB0008C936FC08B81282F30E03F832E838E81F0
:100DC0009F81009731F02E813F8121303105B1F0B4
:100DD00060C0A4E3B0E0E4E3F0E08081482F8A81C2
:100DE000282F30E081E090E0022E02C0880F991F8A
:100DF0000A94E2F7809584238C934BC0A4E3B0E07F
:100E0000E4E3F0E08081482F8A81282F30E081E000
:100E100090E0022E02C0880F991F0A94E2F7842BFB
:100E20008C9337C08B81282F30E03D832C838C81BD
:100E30009D81009731F02C813D8121303105B1F049
:100E400028C0A1E3B0E0E1E3F0E08081482F8A818F
:100E5000282F30E081E090E0022E02C0880F991F19
:100E60000A94E2F7809584238C9313C0A1E3B0E049
:100E7000E1E3F0E08081482F8A81282F30E081E093
:100E800090E0022E02C0880F991F0A94E2F7842B8B
:100E90008C932D960FB6F894DEBF0FBECDBFCF91C9
:100EA000DF910895DF93CF93CDB7DEB72D970FB6BF
:100EB000F894DEBF0FBECDBF89836A834B838981DF
:100EC000843008F009C18A81883008F005C18B811F
:100ED000823008F001C18981282F30E03D872C87BE
:100EE0008C859D858130910509F44FC02C853D8509
:100EF000223031052CF48C859D85009771F0ECC073
:100F00002C853D852230310509F477C08C859D857F
:100F10008330910509F4A9C0DFC08B81282F30E010
:100F20003B872A878A859B85009731F02A853B85F8
:100F300021303105B1F0D0C0ABE3B0E0EBE3F0E03D
:100F40008081482F8A81282F30E081E090E0022EB6
:100F500002C0880F991F0A94E2F7809584238C932E
:100F6000BBC0ABE3B0E0EBE3F0E08081482F8A81C7
:100F7000282F30E081E090E0022E02C0880F991FF8
:100F80000A94E2F7842B8C93A7C08B81282F30E042
:100F90003987288788859985009731F02885398594
:100FA00021303105B1F098C0A8E3B0E0E8E3F0E00B
:100FB0008081482F8A81282F30E081E090E0022E46
:100FC00002C0880F991F0A94E2F7809584238C93BE
:100FD00083C0A8E3B0E0E8E3F0E08081482F8A8195
:100FE000282F30E081E090E0022E02C0880F991F88
:100FF0000A94E2F7842B8C936FC08B81282F30E00A
:101000003F832E838E819F81009731F02E813F8117
:1010100021303105B1F060C0A5E3B0E0E5E3F0E0D8
:101020008081482F8A81282F30E081E090E0022ED5
:1010300002C0880F991F0A94E2F7809584238C934D
:101040004BC0A5E3B0E0E5E3F0E08081482F8A8162
:10105000282F30E081E090E0022E02C0880F991F17
:101060000A94E2F7842B8C9337C08B81282F30E0D1
:101070003D832C838C819D81009731F02C813D81B3
:1010800021303105B1F028C0A2E3B0E0E2E3F0E0A6
:101090008081482F8A81282F30E081E090E0022E65
:1010A00002C0880F991F0A94E2F7809584238C93DD
:1010B00013C0A2E3B0E0E2E3F0E08081482F8A8130
:1010C000282F30E081E090E0022E02C0880F991FA7
:1010D0000A94E2F7842B8C932D960FB6F894DEBF1A
:1010E0000FBECDBFCF91DF910895DF93CF9300D096
:1010F00000D00F92CDB7DEB78A836B838A818430AC
:1011000008F06BC08B81883008F067C08A81282F77
:1011100030E03D832C834C815D814130510541F1AC
:101120008C819D818230910534F42C813D81211583
:10113000310561F052C04C815D814230510551F161
:101140008C819D8183309105B9F147C0E9E3F0E0DE
:101150008081282F30E08B81882F90E0A90102C088
:10116000559547958A95E2F7CA018170898335C004
:10117000E6E3F0E08081282F30E08B81882F90E03B
:10118000A90102C0559547958A95E2F7CA01817079
:10119000898323C0E3E3F0E08081282F30E08B8156
:1011A000882F90E0A90102C0559547958A95E2F7EE
:1011B000CA018170898311C0E0E3F0E08081282FAB
:1011C00030E08B81882F90E0A90102C055954795AA
:1011D0008A95E2F7CA018170898389810F900F9007
:1011E0000F900F900F90CF91DF910895DF93CF93E1
:1011F00000D000D0CDB7DEB789836A83898184307F
:1012000008F072C08A81883008F06EC08981282F6A
:1012100030E03C832B838B819C818130910549F1A7
:101220002B813C81223031052CF48B819C810097ED
:1012300061F05AC02B813C812230310571F18B81E4
:101240009C8183309105E9F14FC0ABE3B0E0EBE363
:10125000F0E08081482F8A81282F30E081E090E003
:10126000022E02C0880F991F0A94E2F784278C93FC
:101270003BC0A8E3B0E0E8E3F0E08081482F8A813A
:10128000282F30E081E090E0022E02C0880F991FE5
:101290000A94E2F784278C9327C0A5E3B0E0E5E346
:1012A000F0E08081482F8A81282F30E081E090E0B3
:1012B000022E02C0880F991F0A94E2F784278C93AC
:1012C00013C0A2E3B0E0E2E3F0E08081482F8A811E
:1012D000282F30E081E090E0022E02C0880F991F95
:1012E0000A94E2F784278C930F900F900F900F9041
:1012F000CF91DF910895DF93CF9300D000D0CDB789
:10130000DEB789836A838981843090F58981282FAB
:1013100030E03C832B838B819C8181309105D1F01F
:101320002B813C81223031052CF48B819C810097EC
:1013300061F01EC02B813C812230310581F08B8110
:101340009C818330910581F013C0EAE3F0E08A814B
:1013500080830EC0E7E3F0E08A81808309C0E4E384
:10136000F0E08A81808304C0E1E3F0E08A81808339
:101370000F900F900F900F90CF91DF910895DF9312
:10138000CF9300D000D0CDB7DEB789836A8389813F
:10139000843090F58981282F30E03C832B838B812A
:1013A0009C8181309105D1F02B813C812230310527
:1013B0002CF48B819C81009761F01EC02B813C81B5
:1013C0002230310581F08B819C818330910581F041
:1013D00013C0EBE3F0E08A8180830EC0E8E3F0E025
:1013E0008A81808309C0E5E3F0E08A81808304C0BC
:1013F000E2E3F0E08A8180830F900F900F900F90CE
:10140000CF91DF910895DF93CF93CDB7DEB7EAE3B5
:10141000F0E081E08083E7E3F0E080EB8083E4E3C9
:10142000F0E01082E1E3F0E082E08083EBE3F0E0C3
:101430001082E8E3F0E01082E5E3F0E01082E2E3FE
:10144000F0E01082CF91DF910895DF93CF93CDB775
:10145000DEB7AFE5B0E0EFE5F0E0808180688C9327
:10146000CF91DF910895DF93CF93CDB7DEB7AFE58E
:10147000B0E0EFE5F0E080818F778C93CF91DF9142
:101480000895DF93CF93CDB7DEB72F970FB6F894BB
:10149000DEBF0FBECDBF8F8783E063E040E00E94D8
:1014A000520783E064E040E00E94520782E06F85CB
:1014B0000E94BF0983E065E041E00E94520780E09E
:1014C00090E0A0E0B0E48B879C87AD87BE876B85FA
:1014D0007C858D859E8520E030E04AEF54E40E94B3
:1014E0001F02DC01CB018F839887A987BA876F81A0
:1014F000788589859A8520E030E040E85FE30E94A6
:10150000790388232CF481E090E09E838D833FC093
:101510006F81788589859A8520E03FEF4FE757E412
:101520000E94190318164CF56B857C858D859E8568
:1015300020E030E040E251E40E941F02DC01CB01D8
:10154000BC01CD010E944900DC01CB019E838D834B
:101550000FC088EC90E09C838B838B819C810197EA
:10156000F1F79C838B838D819E8101979E838D8370
:101570008D819E81009769F714C06F817885898578
:101580009A850E944900DC01CB019E838D838D8169
:101590009E819A83898389819A810197F1F79A8341
:1015A000898383E065E040E00E9452072F960FB6E2
:1015B000F894DEBF0FBECDBFCF91DF910895DF93CA
:1015C000CF93CDB7DEB72F970FB6F894DEBF0FBE1F
:1015D000CDBF8F8783E063E041E00E94520783E044
:1015E00064E040E00E94520782E06F850E94BF09DC
:1015F00083E065E041E00E94520780E090E0A0E0D7
:10160000B0E48B879C87AD87BE876B857C858D8595
:101610009E8520E030E04AEF54E40E941F02DC0186
:10162000CB018F839887A987BA876F817885898551
:101630009A8520E030E040E85FE30E947903882348
:101640002CF481E090E09E838D833FC06F8178858C
:1016500089859A8520E03FEF4FE757E40E94190300
:1016600018164CF56B857C858D859E8520E030E0D5
:1016700040E251E40E941F02DC01CB01BC01CD011C
:101680000E944900DC01CB019E838D830FC088EC52
:1016900090E09C838B838B819C810197F1F79C83E5
:1016A0008B838D819E8101979E838D838D819E8109
:1016B000009769F714C06F81788589859A850E94A3
:1016C0004900DC01CB019E838D838D819E819A83AD
:1016D000898389819A810197F1F79A83898383E0CD
:1016E00065E040E00E9452072F960FB6F894DEBFE7
:1016F0000FBECDBFCF91DF9108950F931F93DF935E
:10170000CF93CDB7DEB7C654D0400FB6F894DEBF46
:101710000FBECDBFFE01ED5BFF4F80E090E0A0EF7C
:10172000B1E480839183A283B3838E01015C1F4F58
:10173000FE01ED5BFF4F608171818281938120E02A
:1017400030E04AEF54E40E941F02DC01CB01F801B3
:1017500080839183A283B383FE01FF9660817181B0
:101760008281938120E030E040E85FE30E947903CA
:1017700088232CF481E090E09EAF8DAF46C0FE013F
:10178000FF96608171818281938120E03FEF4FE776
:1017900057E40E941903181664F5FE01ED5BFF4F34
:1017A000608171818281938120E030E040E251E4E8
:1017B0000E941F02DC01CB01BC01CD010E94490047
:1017C000DC01CB019EAF8DAF0FC088EC90E09CAFE9
:1017D0008BAF8BAD9CAD0197F1F79CAF8BAF8DAD0F
:1017E0009EAD01979EAF8DAF8DAD9EAD009769F711
:1017F00016C0FE01FF9660817181828193810E94F3
:101800004900DC01CB019EAF8DAF8DAD9EAD9AAF8F
:1018100089AF89AD9AAD0197F1F79AAF89AF88E3A7
:101820000E94410A80E090E0A0E8BFE38DAB9EAB50
:10183000AFABB8AF6DA97EA98FA998AD20E030E01D
:101840004AEF54E40E941F02DC01CB0189AB9AAB42
:10185000ABABBCAB69A97AA98BA99CA920E030E00D
:1018600040E85FE30E94790388232CF481E090E054
:1018700098AB8FA73FC069A97AA98BA99CA920E042
:101880003FEF4FE757E40E94190318164CF56DA976
:101890007EA98FA998AD20E030E040E251E40E949B
:1018A0001F02DC01CB01BC01CD010E944900DC011B
:1018B000CB0198AB8FA70FC088EC90E09EA78DA7B7
:1018C0008DA59EA50197F1F79EA78DA78FA598A935
:1018D000019798AB8FA78FA598A9009769F714C0B7
:1018E00069A97AA98BA99CA90E944900DC01CB01B6
:1018F00098AB8FA78FA598A99CA78BA78BA59CA514
:101900000197F1F79CA78BA78FE00E94410A80E026
:1019100090E0A0E8BFE38FA398A7A9A7BAA76FA1FB
:1019200078A589A59AA520E030E04AEF54E40E940A
:101930001F02DC01CB018BA39CA3ADA3BEA36BA1B3
:101940007CA18DA19EA120E030E040E85FE30E94F1
:10195000790388232CF481E090E09AA389A33FC007
:101960006BA17CA18DA19EA120E03FEF4FE757E442
:101970000E94190318164CF56FA178A589A59AA5A0
:1019800020E030E040E251E40E941F02DC01CB0184
:10199000BC01CD010E944900DC01CB019AA389A3BF
:1019A0000FC088EC90E098A38F8F8F8D98A101973E
:1019B000F1F798A38F8F89A19AA101979AA389A380
:1019C00089A19AA1009769F714C06BA17CA18DA190
:1019D0009EA10E944900DC01CB019AA389A389A1A1
:1019E0009AA19E8F8D8F8D8D9E8D0197F1F79E8F81
:1019F0008D8F81E00E94410A80E090E0A0E0B0E499
:101A0000898F9A8FAB8FBC8F698D7A8D8B8D9C8DD2
:101A100020E030E04AEF54E40E941F02DC01CB01D9
:101A20008D8B9E8BAF8BB88F6D897E898F89988DBA
:101A300020E030E040E85FE30E94790388232CF443
:101A400081E090E09C8B8B8B3FC06D897E898F8974
:101A5000988D20E03FEF4FE757E40E9419031816D6
:101A60004CF5698D7A8D8B8D9C8D20E030E040E2C5
:101A700051E40E941F02DC01CB01BC01CD010E9498
:101A80004900DC01CB019C8B8B8B0FC088EC90E074
:101A90009A8B898B89899A890197F1F79A8B898B1F
:101AA0008B899C8901979C8B8B8B8B899C89009758
:101AB00069F714C06D897E898F89988D0E944900CD
:101AC000DC01CB019C8B8B8B8B899C89988B8F87BE
:101AD0008F8598890197F1F7988B8F8786E00E9410
:101AE000410A80E090E0A0E8BFE38B879C87AD8748
:101AF000BE876B857C858D859E8520E030E04AEF32
:101B000054E40E941F02DC01CB018F839887A987D0
:101B1000BA876F81788589859A8520E030E040E832
:101B20005FE30E94790388232CF481E090E09E8398
:101B30008D833FC06F81788589859A8520E03FEF4E
:101B40004FE757E40E94190318164CF56B857C8506
:101B50008D859E8520E030E040E251E40E941F0226
:101B6000DC01CB01BC01CD010E944900DC01CB01AD
:101B70009E838D830FC088EC90E09C838B838B8148
:101B80009C810197F1F79C838B838D819E810197C6
:101B90009E838D838D819E81009769F714C06F812C
:101BA000788589859A850E944900DC01CB019E8356
:101BB0008D838D819E819A83898389819A81019702
:101BC000F1F79A838983CA5BDF4F0FB6F894DEBFC3
:101BD0000FBECDBFCF91DF911F910F910895DF937D
:101BE000CF93CDB7DEB72E970FB6F894DEBF0FBEFA
:101BF000CDBF81E00E94410A80E090E0A0E0B0E427
:101C00008B879C87AD87BE876B857C858D859E8500
:101C100020E030E04AEF54E40E941F02DC01CB01D7
:101C20008F839887A987BA876F81788589859A85F8
:101C300020E030E040E85FE30E94790388232CF441
:101C400081E090E09E838D833FC06F817885898598
:101C50009A8520E03FEF4FE757E40E9419031816DA
:101C60004CF56B857C858D859E8520E030E040E2DB
:101C700051E40E941F02DC01CB01BC01CD010E9496
:101C80004900DC01CB019E838D830FC088EC90E07E
:101C90009C838B838B819C810197F1F79C838B8341
:101CA0008D819E8101979E838D838D819E8100977A
:101CB00069F714C06F81788589859A850E944900EB
:101CC000DC01CB019E838D838D819E819A838983E4
:101CD00089819A810197F1F79A8389832E960FB6AD
:101CE000F894DEBF0FBECDBFCF91DF910895DF9393
:101CF000CF9300D0CDB7DEB79A8389830BC0E9813B
:101D0000FA81208189819A8101969A838983822F21
:101D10000E94DF0AE981FA818081882381F70F9090
:101D20000F90CF91DF910895DF93CF9300D000D033
:101D3000CDB7DEB789836A838981282F30E03C8361
:101D40002B838B819C818130910531F02B813C81EB
:101D50002230310531F009C08A8181580E94410A40
:101D600004C08A8181540E94410A0F900F900F9005
:101D70000F90CF91DF910895EF92FF920F931F93F1
:101D8000DF93CF93CDB7DEB728970FB6F894DEBFB9
:101D90000FBECDBF6D837E838F83988781E090E0F7
:101DA000A0E0B0E089839A83AB83BC838D819E8160
:101DB000AF81B8850097A105B105D1F580E30E94F8
:101DC000DF0A36C089819A81AB81BC812AE030E08C
:101DD00040E050E0BC01CD010E942F127B018C013C
:101DE0008D819E81AF81B8852AE030E040E050E0EF
:101DF000BC01CD010E944E12DC01CB018E0D9F1D56
:101E0000A01FB11F89839A83AB83BC838D819E8180
:101E1000AF81B8852AE030E040E050E0BC01CD0160
:101E20000E944E12DA01C9018D839E83AF83B88769
:101E30008D819E81AF81B8850097A105B10511F60E
:101E400023C089819A81AB81BC812AE030E040E0E7
:101E500050E0BC01CD010E944E12DC01CB01805D3F
:101E60000E94DF0A89819A81AB81BC812AE030E03F
:101E700040E050E0BC01CD010E944E12DA01C901E0
:101E800089839A83AB83BC8389819A81AB81BC812E
:101E900081309105A105B105A1F628960FB6F894F9
:101EA000DEBF0FBECDBFCF91DF911F910F91FF908D
:101EB000EF900895DF93CF93CDB7DEB727970FB696
:101EC000F894DEBF0FBECDBF9C838B836D834E83A2
:101ED0002F838D81882F90E0880F991F880F991F7D
:101EE000880F991F8A838A8180648A838A810E94ED
:101EF000410A19820EC08981282F30E08B819C8194
:101F0000FC01E20FF31F80810E94DF0A89818F5F4D
:101F100089838981883078F38E816F810E94940E45
:101F20008D810E94DF0A27960FB6F894DEBF0FBEA0
:101F3000CDBFCF91DF910895DF93CF9300D0CDB780
:101F4000DEB789836A8389816A8141E00E945207F2
:101F50000F900F90CF91DF910895DF93CF9300D032
:101F6000CDB7DEB789836A8389816A8140E00E94A8
:101F700052070F900F90CF91DF910895DF93CF9389
:101F800000D0CDB7DEB789836A838981482F50E0BE
:101F90008A81282F30E0CA01B9010E94F6080F900B
:101FA0000F90CF91DF910895DF93CF93CDB7DEB738
:101FB000ADE2B0E0EDE2F0E080818F7D8C93ADE2A8
:101FC000B0E0EDE2F0E0808188608C93ADE2B0E0BB
:101FD000EDE2F0E0808184608C93ADE2B0E0EDE270
:101FE000F0E0808180618C93ADE2B0E0EDE2F0E062
:101FF00080818E7F8C93ADE2B0E0EDE2F0E08081F5
:1020000082608C93ADE2B0E0EDE2F0E0808180642C
:102010008C93CF91DF910895DF93CF930F92CDB73B
:10202000DEB78983EFE2F0E089818083EEE2F0E0C1
:1020300080818823DCF7EFE2F0E080810F90CF9180
:10204000DF910895DF93CF9300D0CDB7DEB783E360
:1020500090E09A838983E9E2F0E089818083E0E47B
:10206000F0E089819A81892F99278083AAE2B0E0E4
:10207000EAE2F0E080818B7F8C93E0E4F0E086E898
:102080008083AAE2B0E0EAE2F0E0808188608C938D
:10209000AAE2B0E0EAE2F0E0808180618C930F90E8
:1020A0000F90CF91DF910895DF93CF930F92CDB72B
:1020B000DEB78983EBE2F0E08081829586958770B8
:1020C000882F90E0817090700097A1F3ECE2F0E02F
:1020D00089818083EBE2F0E080818295869587702C
:1020E000882F90E0817090700097A1F3ABE2B0E090
:1020F000EBE2F0E0808180648C930F90CF91DF91D0
:102100000895DF93CF9300D000D00F92CDB7DEB704
:102110008D8319821A821B821C8217C089819A8141
:10212000AB81BC810196A11DB11D89839A83AB83CC
:10213000BC8389819A81AB81BC81883823E1920775
:1021400020E0A20720E0B20761F0EBE2F0E080813E
:10215000829586958770882F90E0817090700097A7
:10216000E9F289819A81AB81BC81883823E19207A9
:1021700020E0A20720E0B20799F119821A821B829F
:102180001C82ECE2F0E08D81808317C089819A8106
:10219000AB81BC810196A11DB11D89839A83AB835C
:1021A000BC8389819A81AB81BC81883823E1920705
:1021B00020E0A20720E0B20761F0EBE2F0E08081CE
:1021C000829586958770882F90E081709070009737
:1021D000E9F2ABE2B0E0EBE2F0E0808180648C9366
:1021E0000F900F900F900F900F90CF91DF91089567
:1021F000DF93CF9300D0CDB7DEB79A8389830BC02E
:10220000E981FA81208189819A8101969A83898363
:10221000822F0E948110E981FA818081882381F7D1
:102220000F900F90CF91DF910895DF93CF930F928E
:10223000CDB7DEB78983EBE2F0E0808182958695A9
:102240008770882F90E081709070882321F0ECE2F5
:10225000F0E0898180830F90CF91DF910895DF9323
:10226000CF93CDB7DEB7EBE2F0E080818823DCF7D7
:10227000ECE2F0E08081CF91DF910895DF93CF937E
:10228000CDB7DEB7ECE2F0E08081CF91DF91089529
:10229000DF93CF9300D00F92CDB7DEB78FEF8B8354
:1022A0001A8219820BC089819A8101969A83898347
:1022B00089819A8123E18838920729F0EBE2F0E0E6
:1022C0008081882384F789819A8123E18838920765
:1022D00021F0ECE2F0E080818B838B810F900F90F6
:1022E0000F90CF91DF910895DF93CF9300D00F929D
:1022F000CDB7DEB789837B836A838981833080F49D
:102300008A819B81009761F08981882F90E0880FF6
:10231000991FFC01E859FF4F8A819B81918380833B
:102320000F900F900F90CF91DF9108951F920F9211
:102330000FB60F9211242F933F934F935F936F9398
:102340007F938F939F93AF93BF93EF93FF93DF930D
:10235000CF93CDB7DEB78091680090916900009768
:1023600029F0E0916800F09169000995CF91DF9123
:10237000FF91EF91BF91AF919F918F917F916F915D
:102380005F914F913F912F910F900FBE0F901F9033
:1023900018951F920F920FB60F9211242F933F930F
:1023A0004F935F936F937F938F939F93AF93BF935D
:1023B000EF93FF93DF93CF93CDB7DEB780916A00A1
:1023C00090916B00009729F0E0916A00F0916B000A
:1023D0000995CF91DF91FF91EF91BF91AF919F91BF
:1023E0008F917F916F915F914F913F912F910F90BE
:1023F0000FBE0F901F9018951F920F920FB60F925D
:1024000011242F933F934F935F936F937F938F93F9
:102410009F93AF93BF93EF93FF93DF93CF93CDB78A
:10242000DEB780916C0090916D00009729F0E091EB
:102430006C00F0916D000995CF91DF91FF91EF91C4
:10244000BF91AF919F918F917F916F915F914F91CC
:102450003F912F910F900FBE0F901F901895629F84
:10246000D001739FF001829FE00DF11D649FE00D8C
:10247000F11D929FF00D839FF00D749FF00D659FED
:10248000F00D9927729FB00DE11DF91F639FB00DEC
:10249000E11DF91FBD01CF0111240895A1E21A2EFB
:1024A000AA1BBB1BFD010DC0AA1FBB1FEE1FFF1FF8
:1024B000A217B307E407F50720F0A21BB30BE40B48
:1024C000F50B661F771F881F991F1A9469F760958F
:1024D0007095809590959B01AC01BD01CF01089549
:1024E0002F923F924F925F926F927F928F929F9224
:1024F000AF92BF92CF92DF92EF92FF920F931F9312
:10250000CF93DF93CDB7DEB7CA1BDB0B0FB6F894C2
:10251000DEBF0FBECDBF09942A88398848885F8402
:102520006E847D848C849B84AA84B984C884DF8073
:10253000EE80FD800C811B81AA81B981CE0FD11D57
:102540000FB6F894DEBF0FBECDBFED010895F8942D
:02255000FFCFBB
:08255200000000000000000081
:00000001FF
