:100000000C942A000C94B6050C94E9050C941C067B
:100010000C943C000C943C000C943C000C943C0070
:100020000C943C000C943C000C943C000C943C0060
:100030000C943C000C943C000C943C000C943C0050
:100040000C943C000C943C000C943C000C943C0040
:100050000C943C0011241FBECFE5D8E0DEBFCDBF1D
:1000600010E0A0E6B0E001C01D92A636B107E1F7AE
:100070000E9449000C949D060C940000DF93CF93DE
:10008000CDB7DEB780E060E00E948D06CF91DF91B2
:100090000895DF93CF93CDB7DEB70E94330480E09D
:1000A00062E00E9454042EE330E080E0B9010E9437
:1000B000760580E00E94C8040E944F06FFCFDF93C0
:1000C000CF93CDB7DEB72D970FB6F894DEBF0FBE36
:1000D000CDBF89836A834B838981843008F009C14D
:1000E0008A81883008F005C18B81823008F001C117
:1000F0008981282F30E03D872C878C859D85813034
:10010000910509F44FC02C853D85223031052CF432
:100110008C859D85009771F0ECC02C853D85223043
:10012000310509F477C08C859D858330910509F4EC
:10013000A9C0DFC08B81282F30E03B872A878A85C2
:100140009B85009731F02A853B8521303105B1F040
:10015000D0C0AAE3B0E0EAE3F0E08081482F8A81D2
:10016000282F30E081E090E0022E02C0880F991F16
:100170000A94E2F7809584238C93BBC0AAE3B0E095
:10018000EAE3F0E08081482F8A81282F30E081E087
:1001900090E0022E02C0880F991F0A94E2F7842B88
:1001A0008C93A7C08B81282F30E0398728878885DA
:1001B0009985009731F02885398521303105B1F0D6
:1001C00098C0A7E3B0E0E7E3F0E08081482F8A81A0
:1001D000282F30E081E090E0022E02C0880F991FA6
:1001E0000A94E2F7809584238C9383C0A7E3B0E060
:1001F000E7E3F0E08081482F8A81282F30E081E01A
:1002000090E0022E02C0880F991F0A94E2F7842B17
:100210008C936FC08B81282F30E03F832E838E819B
:100220009F81009731F02E813F8121303105B1F05F
:1002300060C0A4E3B0E0E4E3F0E08081482F8A816D
:10024000282F30E081E090E0022E02C0880F991F35
:100250000A94E2F7809584238C934BC0A4E3B0E02A
:10026000E4E3F0E08081482F8A81282F30E081E0AC
:1002700090E0022E02C0880F991F0A94E2F7842BA7
:100280008C9337C08B81282F30E03D832C838C8169
:100290009D81009731F02C813D8121303105B1F0F5
:1002A00028C0A1E3B0E0E1E3F0E08081482F8A813B
:1002B000282F30E081E090E0022E02C0880F991FC5
:1002C0000A94E2F7809584238C9313C0A1E3B0E0F5
:1002D000E1E3F0E08081482F8A81282F30E081E03F
:1002E00090E0022E02C0880F991F0A94E2F7842B37
:1002F0008C932D960FB6F894DEBF0FBECDBFCF9175
:10030000DF910895DF93CF93CDB7DEB72D970FB66A
:10031000F894DEBF0FBECDBF89836A834B8389818A
:10032000843008F009C18A81883008F005C18B81CA
:10033000823008F001C18981282F30E03D872C8769
:100340008C859D858130910509F44FC02C853D85B4
:10035000223031052CF48C859D85009771F0ECC01E
:100360002C853D852230310509F477C08C859D852B
:100370008330910509F4A9C0DFC08B81282F30E0BC
:100380003B872A878A859B85009731F02A853B85A4
:1003900021303105B1F0D0C0ABE3B0E0EBE3F0E0E9
:1003A0008081482F8A81282F30E081E090E0022E62
:1003B00002C0880F991F0A94E2F7809584238C93DA
:1003C000BBC0ABE3B0E0EBE3F0E08081482F8A8173
:1003D000282F30E081E090E0022E02C0880F991FA4
:1003E0000A94E2F7842B8C93A7C08B81282F30E0EE
:1003F0003987288788859985009731F02885398540
:1004000021303105B1F098C0A8E3B0E0E8E3F0E0B6
:100410008081482F8A81282F30E081E090E0022EF1
:1004200002C0880F991F0A94E2F7809584238C9369
:1004300083C0A8E3B0E0E8E3F0E08081482F8A8140
:10044000282F30E081E090E0022E02C0880F991F33
:100450000A94E2F7842B8C936FC08B81282F30E0B5
:100460003F832E838E819F81009731F02E813F81C3
:1004700021303105B1F060C0A5E3B0E0E5E3F0E084
:100480008081482F8A81282F30E081E090E0022E81
:1004900002C0880F991F0A94E2F7809584238C93F9
:1004A0004BC0A5E3B0E0E5E3F0E08081482F8A810E
:1004B000282F30E081E090E0022E02C0880F991FC3
:1004C0000A94E2F7842B8C9337C08B81282F30E07D
:1004D0003D832C838C819D81009731F02C813D815F
:1004E00021303105B1F028C0A2E3B0E0E2E3F0E052
:1004F0008081482F8A81282F30E081E090E0022E11
:1005000002C0880F991F0A94E2F7809584238C9388
:1005100013C0A2E3B0E0E2E3F0E08081482F8A81DB
:10052000282F30E081E090E0022E02C0880F991F52
:100530000A94E2F7842B8C932D960FB6F894DEBFC5
:100540000FBECDBFCF91DF910895DF93CF9300D041
:1005500000D00F92CDB7DEB78A836B838A81843057
:1005600008F06BC08B81883008F067C08A81282F23
:1005700030E03D832C834C815D814130510541F158
:100580008C819D818230910534F42C813D8121152F
:10059000310561F052C04C815D814230510551F10D
:1005A0008C819D8183309105B9F147C0E9E3F0E08A
:1005B0008081282F30E08B81882F90E0A90102C034
:1005C000559547958A95E2F7CA018170898335C0B0
:1005D000E6E3F0E08081282F30E08B81882F90E0E7
:1005E000A90102C0559547958A95E2F7CA01817025
:1005F000898323C0E3E3F0E08081282F30E08B8102
:10060000882F90E0A90102C0559547958A95E2F799
:10061000CA018170898311C0E0E3F0E08081282F56
:1006200030E08B81882F90E0A90102C05595479555
:100630008A95E2F7CA018170898389810F900F90B2
:100640000F900F900F90CF91DF910895DF93CF938C
:1006500000D000D0CDB7DEB789836A83898184302A
:1006600008F072C08A81883008F06EC08981282F16
:1006700030E03C832B838B819C818130910549F153
:100680002B813C81223031052CF48B819C81009799
:1006900061F05AC02B813C812230310571F18B8190
:1006A0009C8183309105E9F14FC0ABE3B0E0EBE30F
:1006B000F0E08081482F8A81282F30E081E090E0AF
:1006C000022E02C0880F991F0A94E2F784278C93A8
:1006D0003BC0A8E3B0E0E8E3F0E08081482F8A81E6
:1006E000282F30E081E090E0022E02C0880F991F91
:1006F0000A94E2F784278C9327C0A5E3B0E0E5E3F2
:10070000F0E08081482F8A81282F30E081E090E05E
:10071000022E02C0880F991F0A94E2F784278C9357
:1007200013C0A2E3B0E0E2E3F0E08081482F8A81C9
:10073000282F30E081E090E0022E02C0880F991F40
:100740000A94E2F784278C930F900F900F900F90EC
:10075000CF91DF910895DF93CF9300D000D0CDB734
:10076000DEB789836A838981843090F58981282F57
:1007700030E03C832B838B819C8181309105D1F0CB
:100780002B813C81223031052CF48B819C81009798
:1007900061F01EC02B813C812230310581F08B81BC
:1007A0009C818330910581F013C0EAE3F0E08A81F7
:1007B00080830EC0E7E3F0E08A81808309C0E4E330
:1007C000F0E08A81808304C0E1E3F0E08A818083E5
:1007D0000F900F900F900F90CF91DF910895DF93BE
:1007E000CF9300D000D0CDB7DEB789836A838981EB
:1007F000843090F58981282F30E03C832B838B81D6
:100800009C8181309105D1F02B813C8122303105D2
:100810002CF48B819C81009761F01EC02B813C8160
:100820002230310581F08B819C818330910581F0EC
:1008300013C0EBE3F0E08A8180830EC0E8E3F0E0D0
:100840008A81808309C0E5E3F0E08A81808304C067
:10085000E2E3F0E08A8180830F900F900F900F9079
:10086000CF91DF910895DF93CF93CDB7DEB7EAE361
:10087000F0E081E08083E7E3F0E01082E4E3F0E081
:100880001082E1E3F0E01082EBE3F0E01082E8E3B5
:10089000F0E01082E5E3F0E01082E2E3F0E084E0D3
:1008A0008083CF91DF910895DF93CF9300D000D064
:1008B00000D0CDB7DEB789836A838981833008F0A1
:1008C0005EC08A81843008F05AC08981282F30E0C8
:1008D0003E832D838D819E8181309105D1F02D81C4
:1008E0003E812230310561F18D819E81009709F0B2
:1008F00046C0A5E5B0E0E5E5F0E080818C7F8C9313
:10090000A5E5B0E0E5E5F0E090818A81892B8C9344
:1009100036C0A5E5B0E0E5E5F0E08081837F8C930B
:10092000A5E5B0E0E5E5F0E08081282F8A81882FF9
:1009300090E0880F991F880F991F822B8C931FC0FE
:100940008A81282F30E03C832B838B819C818230ED
:10095000910531F02B813C812330310549F00FC0E6
:10096000A4E5B0E0E4E5F0E080818F7B8C9307C0E4
:10097000A4E5B0E0E4E5F0E0808180648C93269605
:100980000FB6F894DEBF0FBECDBFCF91DF910895B3
:10099000DF93CF9300D00F92CDB7DEB789838981E3
:1009A000833050F58981282F30E03B832A838A8168
:1009B0009B818130910589F02A813B81223031056C
:1009C000A1F08A819B810097B9F4ABE5B0E0EBE53B
:1009D000F0E0808180648C930FC0ABE5B0E0EBE584
:1009E000F0E0808180688C9307C0ABE5B0E0EBE578
:1009F000F0E0808180628C930F900F900F90CF91E8
:100A0000DF910895DF93CF9300D00F92CDB7DEB77B
:100A100089838981833050F58981282F30E03B8399
:100A20002A838A819B818130910589F02A813B81CB
:100A300022303105A1F08A819B810097B9F4ABE5A2
:100A4000B0E0EBE5F0E080818F7B8C930FC0ABE5ED
:100A5000B0E0EBE5F0E080818F778C9307C0ABE5E9
:100A6000B0E0EBE5F0E080818F7D8C930F900F90EC
:100A70000F90CF91DF910895DF93CF9300D00F9225
:100A8000CDB7DEB789838981833050F58981282FDE
:100A900030E03B832A838A819B818130910589F0F4
:100AA0002A813B8122303105A1F08A819B81009708
:100AB000B9F4AAE5B0E0EAE5F0E0808180648C93C7
:100AC0000FC0AAE5B0E0EAE5F0E0808180688C9391
:100AD00007C0AAE5B0E0EAE5F0E0808180628C938F
:100AE0000F900F900F90CF91DF910895DF93CF93E8
:100AF00000D000D00F92CDB7DEB789837B836A83A5
:100B00008981833058F58A819B81009739F18981E9
:100B1000282F30E03D832C838C819D81813091058D
:100B200081F02C813D812230310591F08C819D81B5
:100B30000097A1F48A819B8190936100809360006B
:100B40000DC08A819B81909363008093620006C0F0
:100B50008A819B8190936500809364000F900F9031
:100B60000F900F900F90CF91DF9108951F920F92E9
:100B70000FB60F9211242F933F934F935F936F9370
:100B80007F938F939F93AF93BF93EF93FF93DF93E5
:100B9000CF93CDB7DEB78091600090916100009750
:100BA00029F0E0916000F09161000995CF91DF910B
:100BB000FF91EF91BF91AF919F918F917F916F9135
:100BC0005F914F913F912F910F900FBE0F901F900B
:100BD00018951F920F920FB60F9211242F933F93E7
:100BE0004F935F936F937F938F939F93AF93BF9335
:100BF000EF93FF93DF93CF93CDB7DEB78091620081
:100C000090916300009729F0E0916200F0916300F9
:100C10000995CF91DF91FF91EF91BF91AF919F9196
:100C20008F917F916F915F914F913F912F910F9095
:100C30000FBE0F901F9018951F920F920FB60F9234
:100C400011242F933F934F935F936F937F938F93D1
:100C50009F93AF93BF93EF93FF93DF93CF93CDB762
:100C6000DEB78091640090916500009729F0E091D3
:100C70006400F09165000995CF91DF91FF91EF91AC
:100C8000BF91AF919F918F917F916F915F914F91A4
:100C90003F912F910F900FBE0F901F901895DF93EB
:100CA000CF93CDB7DEB7AFE5B0E0EFE5F0E0808100
:100CB00080688C93CF91DF910895DF93CF93CDB768
:100CC000DEB7AFE5B0E0EFE5F0E080818F778C93A1
:100CD000CF91DF910895DF93CF9300D0CDB7DEB7EA
:100CE00089836A8389816A8141E00E9482010F9031
:100CF0000F90CF91DF910895DF93CF9300D0CDB7C0
:100D0000DEB789836A8389816A8140E00E9482011B
:100D10000F900F90CF91DF910895DF93CF9300D084
:100D2000CDB7DEB789836A8389816A810E942603F1
:0E0D30000F900F90CF91DF910895F894FFCFB0
:00000001FF
